{
    "contractName": "UnoERC20",
    "abi": [
        {
            "inputs": [],
            "stateMutability": "nonpayable",
            "type": "constructor"
        },
        {
            "anonymous": false,
            "inputs": [
                {
                    "indexed": true,
                    "internalType": "address",
                    "name": "owner",
                    "type": "address"
                },
                {
                    "indexed": true,
                    "internalType": "address",
                    "name": "spender",
                    "type": "address"
                },
                {
                    "indexed": false,
                    "internalType": "uint256",
                    "name": "value",
                    "type": "uint256"
                }
            ],
            "name": "Approval",
            "type": "event"
        },
        {
            "anonymous": false,
            "inputs": [
                {
                    "indexed": true,
                    "internalType": "address",
                    "name": "from",
                    "type": "address"
                },
                {
                    "indexed": true,
                    "internalType": "address",
                    "name": "to",
                    "type": "address"
                },
                {
                    "indexed": false,
                    "internalType": "uint256",
                    "name": "value",
                    "type": "uint256"
                }
            ],
            "name": "Transfer",
            "type": "event"
        },
        {
            "inputs": [
                {
                    "internalType": "address",
                    "name": "owner",
                    "type": "address"
                },
                {
                    "internalType": "address",
                    "name": "spender",
                    "type": "address"
                }
            ],
            "name": "allowance",
            "outputs": [
                {
                    "internalType": "uint256",
                    "name": "",
                    "type": "uint256"
                }
            ],
            "stateMutability": "view",
            "type": "function"
        },
        {
            "inputs": [
                {
                    "internalType": "address",
                    "name": "spender",
                    "type": "address"
                },
                {
                    "internalType": "uint256",
                    "name": "amount",
                    "type": "uint256"
                }
            ],
            "name": "approve",
            "outputs": [
                {
                    "internalType": "bool",
                    "name": "",
                    "type": "bool"
                }
            ],
            "stateMutability": "nonpayable",
            "type": "function"
        },
        {
            "inputs": [
                {
                    "internalType": "address",
                    "name": "account",
                    "type": "address"
                }
            ],
            "name": "balanceOf",
            "outputs": [
                {
                    "internalType": "uint256",
                    "name": "",
                    "type": "uint256"
                }
            ],
            "stateMutability": "view",
            "type": "function"
        },
        {
            "inputs": [],
            "name": "decimals",
            "outputs": [
                {
                    "internalType": "uint8",
                    "name": "",
                    "type": "uint8"
                }
            ],
            "stateMutability": "view",
            "type": "function"
        },
        {
            "inputs": [
                {
                    "internalType": "address",
                    "name": "spender",
                    "type": "address"
                },
                {
                    "internalType": "uint256",
                    "name": "subtractedValue",
                    "type": "uint256"
                }
            ],
            "name": "decreaseAllowance",
            "outputs": [
                {
                    "internalType": "bool",
                    "name": "",
                    "type": "bool"
                }
            ],
            "stateMutability": "nonpayable",
            "type": "function"
        },
        {
            "inputs": [
                {
                    "internalType": "address",
                    "name": "spender",
                    "type": "address"
                },
                {
                    "internalType": "uint256",
                    "name": "addedValue",
                    "type": "uint256"
                }
            ],
            "name": "increaseAllowance",
            "outputs": [
                {
                    "internalType": "bool",
                    "name": "",
                    "type": "bool"
                }
            ],
            "stateMutability": "nonpayable",
            "type": "function"
        },
        {
            "inputs": [],
            "name": "totalSupply",
            "outputs": [
                {
                    "internalType": "uint256",
                    "name": "",
                    "type": "uint256"
                }
            ],
            "stateMutability": "view",
            "type": "function"
        },
        {
            "inputs": [
                {
                    "internalType": "address",
                    "name": "recipient",
                    "type": "address"
                },
                {
                    "internalType": "uint256",
                    "name": "amount",
                    "type": "uint256"
                }
            ],
            "name": "transfer",
            "outputs": [
                {
                    "internalType": "bool",
                    "name": "",
                    "type": "bool"
                }
            ],
            "stateMutability": "nonpayable",
            "type": "function"
        },
        {
            "inputs": [
                {
                    "internalType": "address",
                    "name": "sender",
                    "type": "address"
                },
                {
                    "internalType": "address",
                    "name": "recipient",
                    "type": "address"
                },
                {
                    "internalType": "uint256",
                    "name": "amount",
                    "type": "uint256"
                }
            ],
            "name": "transferFrom",
            "outputs": [
                {
                    "internalType": "bool",
                    "name": "",
                    "type": "bool"
                }
            ],
            "stateMutability": "nonpayable",
            "type": "function"
        }
    ],
    "bytecode": "608060405234801561001057600080fd5b5061085b806100206000396000f3fe608060405234801561001057600080fd5b50600436106100935760003560e01c8063395093511161006657806339509351146100fe57806370a0823114610111578063a457c2d714610124578063a9059cbb14610137578063dd62ed3e1461014a57610093565b8063095ea7b31461009857806318160ddd146100c157806323b872dd146100d6578063313ce567146100e9575b600080fd5b6100ab6100a63660046105d5565b61015d565b6040516100b891906105fe565b60405180910390f35b6100c961017a565b6040516100b891906107ea565b6100ab6100e436600461059a565b610180565b6100f1610219565b6040516100b891906107f3565b6100ab61010c3660046105d5565b61021e565b6100c961011f366004610547565b610272565b6100ab6101323660046105d5565b610291565b6100ab6101453660046105d5565b61030a565b6100c9610158366004610568565b61031e565b600061017161016a610349565b848461034d565b50600192915050565b60025490565b600061018d848484610401565b6001600160a01b0384166000908152600160205260408120816101ae610349565b6001600160a01b03166001600160a01b03168152602001908152602001600020549050828110156101fa5760405162461bcd60e51b81526004016101f1906106d4565b60405180910390fd5b61020e85610206610349565b85840361034d565b506001949350505050565b601290565b600061017161022b610349565b848460016000610239610349565b6001600160a01b03908116825260208083019390935260409182016000908120918b168152925290205461026d9190610801565b61034d565b6001600160a01b0381166000908152602081905260409020545b919050565b600080600160006102a0610349565b6001600160a01b03908116825260208083019390935260409182016000908120918816815292529020549050828110156102ec5760405162461bcd60e51b81526004016101f1906107a5565b6103006102f7610349565b8585840361034d565b5060019392505050565b6000610171610317610349565b8484610401565b6001600160a01b03918216600090815260016020908152604080832093909416825291909152205490565b3390565b6001600160a01b0383166103735760405162461bcd60e51b81526004016101f190610761565b6001600160a01b0382166103995760405162461bcd60e51b81526004016101f19061064c565b6001600160a01b0380841660008181526001602090815260408083209487168084529490915290819020849055517f8c5be1e5ebec7d5bd14f71427d1e84f3dd0314c0f7b2291e5b200ac8c7c3b925906103f49085906107ea565b60405180910390a3505050565b6001600160a01b0383166104275760405162461bcd60e51b81526004016101f19061071c565b6001600160a01b03821661044d5760405162461bcd60e51b81526004016101f190610609565b61045883838361052b565b6001600160a01b038316600090815260208190526040902054818110156104915760405162461bcd60e51b81526004016101f19061068e565b6001600160a01b038085166000908152602081905260408082208585039055918516815290812080548492906104c8908490610801565b92505081905550826001600160a01b0316846001600160a01b03167fddf252ad1be2c89b69c2b068fc378daa952ba7f163c4a11628f55a4df523b3ef8460405161051291906107ea565b60405180910390a361052584848461052b565b50505050565b505050565b80356001600160a01b038116811461028c57600080fd5b600060208284031215610558578081fd5b61056182610530565b9392505050565b6000806040838503121561057a578081fd5b61058383610530565b915061059160208401610530565b90509250929050565b6000806000606084860312156105ae578081fd5b6105b784610530565b92506105c560208501610530565b9150604084013590509250925092565b600080604083850312156105e7578182fd5b6105f083610530565b946020939093013593505050565b901515815260200190565b60208082526023908201527f45524332303a207472616e7366657220746f20746865207a65726f206164647260408201526265737360e81b606082015260800190565b60208082526022908201527f45524332303a20617070726f766520746f20746865207a65726f206164647265604082015261737360f01b606082015260800190565b60208082526026908201527f45524332303a207472616e7366657220616d6f756e7420657863656564732062604082015265616c616e636560d01b606082015260800190565b60208082526028908201527f45524332303a207472616e7366657220616d6f756e74206578636565647320616040820152676c6c6f77616e636560c01b606082015260800190565b60208082526025908201527f45524332303a207472616e736665722066726f6d20746865207a65726f206164604082015264647265737360d81b606082015260800190565b60208082526024908201527f45524332303a20617070726f76652066726f6d20746865207a65726f206164646040820152637265737360e01b606082015260800190565b60208082526025908201527f45524332303a2064656372656173656420616c6c6f77616e63652062656c6f77604082015264207a65726f60d81b606082015260800190565b90815260200190565b60ff91909116815260200190565b6000821982111561082057634e487b7160e01b81526011600452602481fd5b50019056fea26469706673582212208b8eb03209083dffd607181fd81fead4bab24c1311ee76d2776e4d16e689ab6e64736f6c63430008000033",
    "sourcePath": "d:/mywork/2021/07July/UnoRe/acturial/contracts/UnoERC20.sol",
    "compiler": {
        "name": "solc",
        "version": "0.8.0+commit.c7dfd78e"
    },
    "functionHashes": {
        "allowance(address,address)": "dd62ed3e",
        "approve(address,uint256)": "095ea7b3",
        "balanceOf(address)": "70a08231",
        "decimals()": "313ce567",
        "decreaseAllowance(address,uint256)": "a457c2d7",
        "increaseAllowance(address,uint256)": "39509351",
        "totalSupply()": "18160ddd",
        "transfer(address,uint256)": "a9059cbb",
        "transferFrom(address,address,uint256)": "23b872dd"
    },
    "gasEstimates": {
        "creation": {
            "codeDepositCost": "427800",
            "executionCost": "461",
            "totalCost": "428261"
        },
        "external": {
            "allowance(address,address)": "infinite",
            "approve(address,uint256)": "22584",
            "balanceOf(address)": "infinite",
            "decimals()": "307",
            "decreaseAllowance(address,uint256)": "infinite",
            "increaseAllowance(address,uint256)": "infinite",
            "totalSupply()": "1051",
            "transfer(address,uint256)": "infinite",
            "transferFrom(address,address,uint256)": "infinite"
        },
        "internal": {
            "_afterTokenTransfer(address,address,uint256)": "infinite",
            "_approve(address,address,uint256)": "infinite",
            "_beforeTokenTransfer(address,address,uint256)": "15",
            "_burn(address,uint256)": "infinite",
            "_mint(address,uint256)": "infinite",
            "_transfer(address,address,uint256)": "infinite"
        }
    }
}